:020000040800F2
:1000000060E70024AD020008D18C0008B18400082C
:10001000B18C0008C90B0008C9A900080000000045
:10002000000000000000000000000000BF02000807
:10003000410D0008000000009D0300085503000862
:10004000C7020008C7020008C7020008C70200086C
:10005000C7020008C7020008C7020008C70200085C
:10006000C7020008C7020008C7020008C70200084C
:10007000C7020008C7020008C7020008C70200083C
:10008000C7020008C7020008C7020008C70200082C
:10009000C7020008C7020008C7020008C70200081C
:1000A000C702000831960008C7020008C70200080E
:1000B000C7020008C7020008C7020008C7020008FC
:1000C000C7020008C7020008C7020008C7020008EC
:1000D000C7020008C7020008C7020008C7020008DC
:1000E000C7020008C702000800000000C70200089D
:1000F000C7020008C7020008C7020008C7020008BC
:10010000C7020008C7020008C7020008C7020008AB
:10011000C7020008C7020008C7020008C70200089B
:10012000C7020008C7020008C7020008C70200088B
:10013000C7020008690E0008C7020008C7020008CD
:1001400000000000000000000000000000000000AF
:10015000C7020008C7020008C7020008C70200085B
:10016000C7020008C7020008C7020008C70200084B
:10017000C7020008C7020008C7020008C70200083B
:10018000C7020008C7020008C7020008C70200082B
:10019000C7020008C7020008C7020008C70200081B
:1001A000C7020008C7020008C7020008C70200080B
:1001B000C7020008C7020008C7020008C7020008FB
:1001C000C7020008C7020008C7020008C7020008EB
:1001D000C7020008C7020008C7020008C7020008DB
:1001E000C7020008C7020008C7020008C7020008CB
:1001F000C7020008C7020008C7020008C7020008BB
:10020000C7020008C7020008C7020008C7020008AA
:10021000C7020008C7020008C7020008C70200089A
:10022000C7020008C7020008C7020008000000005B
:10023000C7020008C702000800000000C70200084B
:10024000C7020008C7020008C7020008C70200086A
:10025000C7020008C7020008C7020008C70200085A
:10026000C7020008C7020008C7020008C70200084A
:10027000C7020008C7020008C7020008000000000B
:10028000C7020008C7020008C702000800000000FB
:1002900000000000C7020008DFF80CD000F0C4FB2B
:1002A00000480047D1D2010860E700240648804793
:1002B00006480047FEE7FEE7FEE7FEE7FEE7FEE74B
:1002C000FEE7FEE7FEE7FEE7D1940008990200088A
:1002D000000000086414002400000008001000E082
:1002E000773F07000000FF4000BF00BF00BF00BF16
:1002F00072B64FF0E0205FF82810C0F8081D5FF8D4
:100300002C005FF82C10096801605FF8300001686C
:1003100041F0010101604FF0E0205FF83C104161C5
:100320004FF0070101614FF00001C0F8181D4FF0B8
:100330007F41C0F81C1D5FF85410C0F8201D7047A5
:10034000FFF7FEBFFFF7FEBFFFF7FEBF01B5BDE839
:100350000140704701B500F093F8BDE801407047D7
:10036000FFF7FEBFFFF7FEBF000000000000000027
:100370004FF000002A4A1060EFF3148020F00400D0
:1003800080F3148862B64FF080504FF0E021C1F83E
:10039000040DBFF34F8FBFF36F8FFEE72148224A52
:1003A0004FF00003016891B10360EFF3098C2CE971
:1003B000F00F1EF0100F01D12CED108A1B4C4CF8E1
:1003C00004ED2568C1F808C00DB18D61236072B6D7
:1003D0001168B1B1016062B64F68154C8D6907F1C3
:1003E00001074F602560D1F808C05CF804EB1EF0EF
:1003F000100F01D1BCEC108ABCE8F00F8CF3098817
:10040000704772B61168016009B962B6F9E74FF03A
:1004100000674FF0E028C8F8047D62B6DCE770475B
:10042000DC130024CC130024D0130024C8190024AA
:10043000C8190024000000000000000000000000B7
:10044000026922F00702A2F144026FF00203136076
:100450004FF0000353609360D36013615361936165
:10046000D361136253629362D362136353634FF099
:10047000FF339363D1634FF08073136482607047DE
:100480002249086800F101000860214B1A683AB15E
:10049000A2F101021A601AB91E4B4FF00100186058
:1004A0001D490868026822B11C4B4FF001021A6016
:1004B00008E000F104001A4B1A68904201D1194B70
:1004C00018680860184B1A6812B918490868D0B142
:1004D0002DE901401649086808B11CF005F9154BD3
:1004E0001A6872B11BF0F8FF1348016849B9134844
:1004F0000168134A136813484FF08052994200D0A4
:100500000260BDE80140BFF34F8F7047141500240F
:10051000C8190024781400247014002474140024D2
:1005200000150024041500247814002474140024F9
:100530007414002478140024DC130024CC13002449
:10054000D013002404ED00E02DE9F05F0546002003
:1005500092469B4688460646814640241BE0284634
:1005600041464746224600F097F853465A46C01A7D
:10057000914110D311461846224600F07EF82D1AFC
:1005800067EB01084F4622460120002100F075F874
:1005900017EB00094E41201EA4F10104DFDC4846A0
:1005A00031462A464346BDE8F09F00000649074A07
:1005B0000868504343F2390210440860400870470D
:1005C0000149086070470000C00000246D4EC6411C
:1005D00010B5431A934209D28318881803E010F823
:1005E000011D03F8011D521EF9D210BD40EA01039E
:1005F0009B0703D009E008C9121F08C0042AFAD2D9
:1006000003E011F8013B00F8013B521EF9D210BD86
:10061000D2B201E000F8012B491EFBD27047002244
:10062000F6E710B513460A4604461946FFF7F0FFF1
:10063000204610BD30B504460020034600E05B1C98
:10064000934203D2E05CCD5C401BF8D030BD30B5A6
:100650000B46014600202022012409E021FA02F580
:100660009D4205D303FA02F5491B04FA02F528441A
:10067000151EA2F10102F1DC30BD202A04DB203A74
:1006800000FA02F1002070479140C2F1200320FAE5
:1006900003F3194390407047202A04DB203A21FAE3
:1006A00002F00021704721FA02F3D040C2F120028B
:1006B00091400843194670472DE9FE4F804681EA74
:1006C0000300C00F0C46009021F0004123F00045CC
:1006D000B8EB0200A94105D24046214690461C468F
:1006E0000B46024623F00040104347D0270DC7F3C6
:1006F0000A00C3F30A510290401A019040286BDAB5
:10070000C3F3130040F4801B0098924620B10023ED
:10071000D2EB030A63EB0B0B01985946C0F1400280
:100720005046FFF7AAFF06460D4650465946019A25
:1007300000F08CF910EB08006141002487EA1152A7
:1007400084EAE7731A4340D0009A62B3019A012AFF
:100750004FEA075215DC001B61EB02014FF000422B
:1007600002EA0752CDE90042001C41F580113246F1
:100770002B4600F08CF903B0BDE8F08F40462146CF
:10078000F9E7001B61EB0201001C41F58013001822
:100790005B412018A2F5001747EB030140EAD57032
:1007A000B6196D4111E06D084FEA360645EAC0758D
:1007B0004FEA0752001B61EB0201001C41F580115A
:1007C00049084FEA30000019514132462B4603B028
:1007D000BDE8F04F00F04CB9009801224000002322
:1007E000D0EB020263EBE073009821464FEAE0741D
:1007F000B8EB000061EB0401E9E783F000435BE73D
:1008000081F0004158E72DE9FE4F81EA030404F02E
:10081000004421F0004100944FF0000B23F000430E
:1008200050EA01045ED052EA03045BD0C3F30A54D9
:10083000C1F30A552C44A4F2F3340194A0FB0254F2
:10084000C1F3130141F48011C3F3130343F4801384
:1008500001FB024400FB034E840A970A44EA8154D8
:1008600047EA8357A4FB076802958D0A05FB0785B5
:100870004FEA932C04FB0C542705029D4FEA0658BF
:1008800047EA1637B5EB08056EEB070C870E920E9C
:1008900047EA811742EA8312A7FB0201B6EB0B017C
:1008A00064EB00042B0D43EA0C335E1844EB1C5040
:1008B000DA465146E7FB0201C5F313044FEA0B3356
:1008C00043EA14534FEA0432019C43EA0603A4F1BD
:1008D0000C040294009CCDE900B400F0D8F803B0F9
:1008E000BDE8F08F00200146F9E72DE9F04D81EADF
:1008F000030404F0004B21F0004514464FF0000AB9
:1009000023F0004150EA050220D054EA01021DD034
:10091000C5F30A570246C5F31303C1F31300C1F32D
:100920000A5640F4801543F48013A7EB0608101B09
:10093000D64608F2FD3873EB050002D308F1010832
:1009400001E092185B41B8F1000F03DA0020014684
:10095000BDE8F08D00204FF48011064684460EE07D
:10096000171B73EB050705D3121B63EB0503064347
:100970004CEA010C49084FEA300092185B4150EAFA
:100980000107EDD152EA030012D082EA040083EAA3
:100990000501084305D0101BAB4106D201220023FC
:1009A00006E000224FF0004302E06FF00102531016
:1009B0001AEB06004CEB085110EB0A0041EB0B015F
:1009C000BDE8F04D00F054B8C1F30A52C1F3130171
:1009D00040F2FF3341F480119A4202DA00200146CE
:1009E000704740F233439A42A2F2334202DC524251
:1009F000FFF752BEFFF741BE30B5041E71F100048F
:100A000004DB4FF00044404264EB0101141E73F11B
:100A1000000405DB1C464FF00043524263EB040325
:100A2000994208BF904230BD064C074D06E0E06891
:100A300040F0010394E8070098471034AC42F6D325
:100A4000FFF72EFCC4E60108E4E60108202A06DBD5
:100A5000CB17203A41FA02F043EAE07306E041FA8C
:100A600002F3D040C2F1200291400843194670477A
:100A700010B5141E73F1000408DA401C41F10001A6
:100A800092185B411A4301D120F0010010BD2DE9FD
:100A9000F04D92469B4611B1B1FA81F202E0B0FAF4
:100AA00080F220329046FFF7E8FD04460F4640EA08
:100AB0000A0041EA0B0153465A46084313D0114637
:100AC00053EA010019D0C8F140025046FFF7E4FD97
:100AD00005460E46504659464246FFF7CEFD0843AE
:100AE00005D0012004E020463946BDE8F08D002005
:100AF000054346EAE0762C4337430A986305E40A47
:100B0000A0EB08000022FD0A44EA47540A3002D54F
:100B100000200146E9E7010510196941DDE90845B2
:100B200000196941BDE8F04DA2E730B58C1810F806
:100B3000012B12F00F0301D110F8013B120906D16D
:100B400010F8012B03E010F8015B01F8015B5B1E5C
:100B5000F9D101E001F8013B521EFBD1A142E6D3DD
:100B6000002030BD0000000080B58CB00B9000204C
:100B70000A900B9909916946B0228A6101224A6163
:100B80000861CA608A604FF480624A604CF678223D
:100B9000C2F200420A604CF6C811C2F200414EF2A5
:100BA000FC12C0F601024DF21143C0F60103089099
:100BB000084611461A46089B1CF0E6F90A99079068
:100BC00008460CB080BD000080B54EF20520C0F68E
:100BD00001004EF27521C0F601011CF04BFEFFE74B
:100BE000FEE700000000000083B00290019102982F
:100BF0000068019909680022884200921CD1FFE731
:100C0000029840680199496800228842009213D1F5
:100C1000FFE7029880680199896800228842009263
:100C20000AD1FFE70298C0680199C968401AB0FA72
:100C300080F040090090FFE7009800F0010003B049
:100C4000704700000000000080B588B00690059154
:100C50000492049840090390049800F01F00029049
:100C6000039800280DD0FFE706980599039A920093
:100C7000FFF7E0FC002803D0FFE7002007901FE00B
:100C8000FFE70298002818D0FFE70298C0F1200083
:100C90004FF0FF3101FA00F001900698039950F8E7
:100CA0002100059A52F8211048400199084203D0CA
:100CB000FFE70020079003E0FFE701200790FFE730
:100CC000079808B080BD000082B0019001980068CC
:100CD00001210028009115D1FFE70198406801210A
:100CE000002800910ED1FFE70198806801210028BB
:100CF000009107D1FFE70198C068002818BF0120C4
:100D00000090FFE70098012121EA000002B070473F
:100D100082B00190009101980068009908600198E4
:100D2000406800994860019880680099886001983F
:100D3000C0680099C86002B0704700000000000061
:100D400080B54EF20520C0F601004EF23F21C0F6FC
:100D500001011CF08FFD80BD83B002900020009047
:100D6000FFE70098032820D8FFE702980069009960
:100D700001EB410100EBC1000190019800210160ED
:100D800001984160019881600198C16001980161FA
:100D90000198416101980299009A01EB82018864EF
:100DA000FFE7009801300090DBE702980021C16561
:100DB00002980166029881660298C1660298816570
:100DC0000298006841F230110322425002980168F3
:100DD000006941F21C12885002980168006948308D
:100DE00041F22812885003B0704700000000000054
:100DF00083B0029000200090FFE7009803281CD8E1
:100E0000FFE70298C068009901EB410100EBC100C7
:100E10000190019800210160019841600198816072
:100E20000198C16001980299009A01EB82018861E2
:100E3000FFE7009801300090DFE70298002181620F
:100E40000298006841F22C11032242500298016876
:100E5000C06841F21412885002980168C0684FF4CB
:100E60008952885003B0704780B542F6F030C2F224
:100E7000004000F0D1FF80BD80B5A6B025900120D4
:100E80008DF83F00002115918DF84D108DF84F1011
:100E90008DF834008DF862008DF83E008DF8581002
:100EA0008DF890004FF4005212928DF868101B914B
:100EB0008DF891108DF892104FF4C36219928DF84D
:100EC0003C100E918DF841008DF842108DF84C10B9
:100ED00020911E9117918DF870108DF886108DF865
:100EE0004E00202223928DF850008DF861104FF0B3
:100EF00040520C924FF4804211928DF83D10022224
:100F000022928DF884108DF885108DF860108DF880
:100F100040001D918DF87C00259A0CAB0290104684
:100F20000191194600F00CFB02988DF81000059015
:100F3000019903918DF828108DF819108DF818106B
:100F40004FF4001209928DF8201007928DF82910A5
:100F50004FF406720B92259803A900F085FA26B08B
:100F600080BD0000000000008DB00A900991089239
:100F70000A9818300790079800690690079800694A
:100F80000590002003900799069A51F822100291CB
:100F900009998968019100900298C06800F00040AA
:100FA000B0F1004F08D0FFE70798069900EB8100E9
:100FB0004069002803D0FFE702200B904EE2099819
:100FC0000078400700283FD5FFE70298C0684FF639
:100FD000FF7188430999496A08430299C8600298D9
:100FE000C16841F48031C1600A980068016E41F423
:100FF00080110166099800780007002823D5FFE7D3
:10100000029880680999C96AC0EA0140029988601B
:101010000298C16841F40031C1600298C06820F4B0
:1010200040200999096B08430299C8600A98006832
:10103000416E41F4801141660A980068016D41F0EB
:1010400080610165FFE7FFE709980078C006002886
:1010500010D5FFE70298806843F6FF71884309992D
:1010600089690843029988600298C16841F08061EB
:10107000C160FFE7099800784007002806D4FFE721
:1010800009980078C006002837D5FFE70298C168A4
:1010900041F08041C160BFF35F8F0298C16841F0A9
:1010A0000041C160FFE706980130069006980428C9
:1010B00004D3FFE7069804380690FFE7FFE7079898
:1010C000069950F82100029003980130039002988D
:1010D000C068C00F00280FD0FFE70798059950F8A7
:1010E00021000290BFF35F8F0298C16821F0004198
:1010F000C16002200B90B1E1FFE70398013003903B
:1011000001980068029908600298806843F6FF71B0
:10111000884301994968084302998860019880686A
:10112000002812D0FFE701988068019001980068BC
:1011300002994860029880686FF31D4001994968E0
:1011400040EA01400299886009E00298002141606C
:10115000029880686FF31D4002998860FFE7099844
:101160000078C006002819D5FFE70298C06820F46F
:10117000F0000999096A40EAC1400299C8600298E2
:10118000C0686FF311000999C96908430299C860E2
:101190000298C16841F48021C1602AE00298C068C9
:1011A00047F6FF7188430999496808430299C86066
:1011B00009980078C00700280AD0FFE70298C068A5
:1011C00020F440300999496908430299C860FFE753
:1011D00009980078800600280AD5FFE70298C068C1
:1011E00020F040600999096908430299C860FFE747
:1011F000FFE709980078400700280AD5FFE7029822
:10120000806820F440400999896A084302998860FF
:10121000FFE70298C16841F00051C1600298C168BF
:1012200021F08041C160BFF35F8F0298C16841F037
:101230000041C16009980078800700280AD5FFE7BF
:101240000298C06820F060700999C9680843029943
:10125000C860FFE7FFE701988068002800F0D280AF
:10126000FFE70298C16821F08051C160FFE706984E
:10127000013006900698042804D3FFE70698043846
:101280000690FFE7FFE70798069950F821000290C3
:101290000298C16821F00051C1600298C06800F056
:1012A0000040B0F1004F08D0FFE70798069900EB27
:1012B00081004069002830D0FFE705980690079824
:1012C000069950F82100029000200490FFE704984E
:1012D000039988421ED2FFE7BFF35F8F0298C1686F
:1012E00021F00041C160FFE70698013006900698A2
:1012F000042804D3FFE7069804380690FFE7FFE7C9
:101300000798069950F821000290FFE704980130F1
:101310000490DCE702200B90A0E0039801300390DA
:10132000019880680190019800680299086002980D
:10133000806843F6FF718843019949680843029920
:10134000886001988068002812D0FFE701988068C3
:1013500001900198006802994860029880686FF3D4
:101360001D400199496840EA01400299886009E0FE
:10137000029800214160029880686FF31D40029935
:101380008860FFE709980078C00600280FD5FFE7BE
:101390000298C0686FF311000999C969084302995E
:1013A000C8600298C16841F48021C1601AE00298C7
:1013B000C06847F6FF718843099949680843029954
:1013C000C86009980078C00700280AD0FFE7029893
:1013D000C06820F440300999496908430299C860FF
:1013E000FFE7FFE7009801300090BFF35F8F02989E
:1013F000C16841F00041C1600298C16821F080419C
:10140000C16028E70898002806D0FFE702988168A5
:1014100041F00041816005E00298816821F00041BF
:101420008160FFE70298C16841F08051C160079870
:10143000416A069A00EB82004161069807990861AB
:10144000EFF3108072B60C90009807998A6A1044E6
:101450000130886262B600200B90FFE70B980DB058
:10146000704700000000000083B0029001910298D4
:1014700000684FF48051405847F602029043019AA9
:1014800012681043029A12685050019801798268DC
:1014900042EA0131007B41EAC030009002980068C6
:1014A00041F2040140584DF201029043009A10436A
:1014B000029A126850500198417B006A40EA01404C
:1014C0000090029800684FF4885140584CF2000296
:1014D000CFF6FE721040009A1043029A12685050E4
:1014E00001980169027D41EA0211407F41EA003022
:1014F00000900298006841F2041140584EF6EF72D5
:10150000CFF6C0721040009A1043029A12685050F1
:101510000198017F806940EAC170009002980068DC
:1015200041F2081140584FF6FF72C7F6C0721040E2
:10153000009A1043029A1268505003B0704700009E
:1015400083B0029001910198816802681143027989
:1015500041EAC261027B41EAC251427B41EA8251C7
:10156000827B41EA4251C27B41EA0251027C41F452
:101570000023002A08BF1946427C41F40033002AA8
:1015800008BF1946827C41EA0241426941EA0201F0
:10159000826941EA0201027F41EA0231427F41EA67
:1015A000C221827F41F48063002A08BF1946C27FAE
:1015B00041EA422190F8202041F48073002A08BFBC
:1015C0001946426A41EA020190F8282041EA0211D4
:1015D000C06A40EA0100009002980068006848F282
:1015E0008301C0F2040100EA0100009940EA010011
:1015F0000299096808600198C16B4FEA416190F84F
:10160000382041EA026190F8302090F8313090F8AB
:1016100032C041EA824141EA434101F58032BCF1E6
:10162000000F08BF1146406B40EA0100009002988D
:101630000068406848F20001CCF2F80100EA0100BD
:10164000009940EA0100029909684860019890F801
:101650004010406C40EA0120009002980068C06889
:1016600040F20F1120EA0100009940EA01000299BE
:101670000968C860019890F85410026D42EA41016F
:1016800090F84C2041F08003002A08BF1946806C76
:1016900041EA0040009002980068006F4FF60D711B
:1016A00000EA0100009940EA010002990968086710
:1016B000019890F8551090F8560040EA41000090CB
:1016C00002980068D0F8900020F00300009940EAEA
:1016D000010002990968C1F8900002980068D0F8EA
:1016E000000D20F072000199896D40EA0100029915
:1016F0000968C1F8000D0198C16D90F8602041F0B3
:101700004003002A08BF194690F8612041EA0211FF
:1017100090F8620041EAC000009002980068D0F89A
:10172000300D20F07B00009940EA01000299096821
:10173000C1F8300D03B0704780B588B00790002025
:10174000039001208DF80B000798806E0690079893
:10175000069900EB8100806C04900798C06E05909C
:10176000FFE7059800210028019107D0FFE79DF8C9
:101770000B00002818BF01200190FFE70198C00767
:10178000002846D0FFE704980069002813D1FFE73E
:1017900003A800F071FF0398002804D1FFE70020A0
:1017A0008DF80B0006E003980499086103980499EA
:1017B0000860FFE7FFE79DF80B00002828D0FFE74F
:1017C000BFF35F8F0798806D002805D0FFE704986E
:1017D0004FF04141C16004E004984FF00141C16005
:1017E000FFE7FFE70698013006900698042804D327
:1017F000FFE7069804380690FFE7FFE70798069989
:1018000000EB8100806C0490059801380590FFE79B
:10181000A7E70798C06E059988420DD0FFE70798A3
:10182000006841F228110022425006980799886604
:1018300005980799C866FFE708B080BD0000000062
:1018400081B0EFF3108072B60090FFE7FEE7000072
:1018500080B588B007900691059200208DF813009E
:101860001F200390059800280CD0FFE70598082852
:1018700008D0FFE70598102804D0FFE7059818283E
:1018800001D1FFE707E04EF29440C0F601005F216E
:101890001BF0AEFCFFE7FFE70398411E0391002118
:1018A000002802910AD0FFE70698039901F01F0172
:1018B000C840012121EA00000290FFE70298C0071A
:1018C000002801D0FFE7E7E70598182801902BD8FA
:1018D0000199DFE801F028292929292929291F2927
:1018E00029292929292916292929292929290D00C0
:1018F0000398072804D3FFE701208DF81300FFE7C2
:1019000016E00398082804D3FFE701208DF81300A0
:10191000FFE70DE00398102804D3FFE701208DF8BE
:101920001300FFE704E003E001208DF81300FFE758
:101930009DF8130000280FD1FFE706980799096862
:10194000486107980068806820F0180005990843EE
:10195000079909688860FFE79DF8130008B080BD0B
:1019600080B582B000900098002804D1FFE70120E4
:101970008DF80700DBE00098006844F60041C5F6EA
:101980000201884201D1FFE707E04EF25C40C0F659
:10199000010070211BF02CFCFFE70098407F00281D
:1019A00007D1FFE7009800210177009800F0C4F804
:1019B000FFE700980221417700980079002805D0C0
:1019C000FFE700980079012801D1FFE707E04EF218
:1019D0005C40C0F601007E211BF00AFCFFE7009886
:1019E0000079002810D1FFE70098006841F6B75150
:1019F000C0F2C141416100980068806820F0180081
:101A00000099096888600CE000988168C268FFF757
:101A10001FFF002804D0FFE701208DF8070086E0B3
:101A2000FFE700984079002805D0FFE7009840794B
:101A3000012801D1FFE707E04EF25C40C0F601004B
:101A400090211BF0D5FBFFE700984079002806D1D4
:101A5000FFE7009800684FF0FF31016104E0009853
:101A6000016800690861FFE70098406900280FD00D
:101A7000FFE70098406920280AD0FFE700984069F6
:101A8000402805D0FFE700984069602801D1FFE7B2
:101A900007E04EF25C40C0F601009C211BF0A8FB61
:101AA000FFE700980068806820F0600000990A68ED
:101AB00049690843906000988069002805D0FFE7D5
:101AC00000988069802801D1FFE707E04EF25C4072
:101AD000C0F60100A0211BF08BFBFFE70098006817
:101AE000806820F0800000990A6889690843906046
:101AF0000098006A01280AD0FFE70098006A0228CF
:101B000005D0FFE70098006A032801D1FFE707E04E
:101B10004EF25C40C0F60100A5211BF069FBFFE717
:101B200000980121417700208DF80700FFE79DF81C
:101B3000070002B080BD000082B0019001980068EB
:101B400044F60041C5F60201884210D1FFE7FFE7E5
:101B500044F2E040C5F60200016841F40021016052
:101B6000006800F4002000900098FFE7FFE702B053
:101B7000704700000000000081B0009001B0704785
:101B800081B0009001B0704783B00190009100983F
:101B9000002804D1FFE701208DF80B0036E1019801
:101BA0000068006800F00C000099C86201980068A5
:101BB0000068C0F30010009981F8280001980068BF
:101BC000006800F0600000994862019800680068B1
:101BD00000F48070012181EA1020009A82F8200030
:101BE000019800680068C0F34020009AD0770198FF
:101BF0000068006800F4806081EA9020009A907785
:101C0000019800680068C0F3C020009A50770198DE
:101C100000680068C0F30030009A107701980068EF
:101C2000006800F40050009A906101980068006814
:101C300000F48040009A5061019800680068C0F389
:101C40000040009A907401980068006800F4003029
:101C500081EA5040009A507401980068006800F4CE
:101C6000002081EAD040009A107401980068006852
:101C7000C0F30050009AD073019800680068C0F368
:101C80004050009A9073019800680068C0F380503B
:101C9000009A5073019800680068C0F3C050009A21
:101CA000107301980068006800F0E060009A90608E
:101CB000019800680068C0F3C060009A1071019834
:101CC0000068006800F0E040009A10600198006829
:101CD00040686FF39F30009A506301980068406835
:101CE00000F4803081EA1040009A82F832000198B6
:101CF00000684068C0F34040009A82F831000198C3
:101D000000684068C0F38040009A82F83000019873
:101D100000684068C0F30060009A82F838000198BB
:101D200000684068C0F34460009AD063019800687E
:101D3000C068C0F30020009A82F840000198006853
:101D4000C06800F00F00009A506401980068006FAE
:101D5000C0F34000009A82F8540001980068006FB8
:101D6000C0B281EAD010009A82F84C000198006855
:101D7000006F00F07000009A106501980068006F15
:101D8000000C009A906401980068D0F8900000F070
:101D90000100009A82F8560001980068D0F890007F
:101DA000C0F34000009A82F8550001980068D0F80E
:101DB000000D00F07200009A906501980068D0F85C
:101DC000300D00F02300009AD06501980068D0F82B
:101DD000300DC0F3C000009A82F8620001980068DC
:101DE000D0F8300DC0F30010009A82F8610001981D
:101DF0000068D0F8300D00F0400081EA90100099A2
:101E000081F8600000208DF80B00FFE79DF80B00C3
:101E100003B070470000000080B582B001900198C7
:101E200000684FF48B5140584006002815D5FFE755
:101E30000198006841F234114058400600280BD543
:101E4000FFE7019800684FF48B5148F2400242507E
:101E5000019800F05DFCFFE7FFE7019800684FF490
:101E60008B514058C007002815D0FFE70198006843
:101E700041F234114058C00700280BD0FFE7019809
:101E800000684FF48B5148F201024250019800F073
:101E90009FFEFFE7FFE7019800684FF48B51405821
:101EA0004004002846D5FFE70198006841F234114C
:101EB0004058400400283CD5FFE70198D0F888102E
:101EC00041F00801C0F88810019800684FF48B5168
:101ED0004058C004002818D5FFE7019800684FF467
:101EE0008B51405841F2021108400199C1F88C0011
:101EF0000198006841F23411425822F440424250A5
:101F00000198E021C0F884100FE0019800684FF4B8
:101F10008B51405800F4CD40019AC2F88C000198D2
:101F200000684FF4CD424250FFE70198FFF728FECA
:101F3000FFE7FFE701980068D0F8B4000090009830
:101F400000F48040B0F5804F06D0FFE79DF8010017
:101F5000800600281AD5FFE70198D0F8881041F0D4
:101F60001001C0F8881001980068D0F8B8000199F5
:101F7000C1F890000198E021C0F884100198FFF7A3
:101F8000FFFD01980021C0F89010FFE7019800685C
:101F9000D0F8B000C006002811D5FFE7019800680E
:101FA000D0F8C00000F060000199C1F894000198D9
:101FB00000F0B2F901980021C0F89410FFE70198F1
:101FC0000068D0F8B0008006002811D5FFE701981E
:101FD0000068D0F8C00000F00F000199C1F8980027
:101FE0000198FFF7C9FD01980021C0F89810FFE79C
:101FF000A820C5F600000068400200280AD5FFE7C7
:10200000A820C5F600004FF480010160019800F09F
:102010000FFEFFE702B080BD80B586B00490049843
:10202000002804D1FFE701208DF81700BAE00498DA
:10203000D0F88400002808D1FFE704982321C0F8D5
:102040008410049800F0B4F8FFE7FFE744F2F4408E
:10205000C5F60200016841F002010160006800F06D
:10206000020002900298FFE70498007A002804D149
:10207000FFE7002005F0DCF904E04FF4000005F074
:10208000D7F9FFE740F20440C5F600000068049964
:1020900009684FF480528B5843F001038B50019034
:1020A00001F0BEF90390FFE7049800684FF48051F7
:1020B0004058C007002815D0FFE701F0B1F9039997
:1020C000401AB0F5FA7F0CD9FFE704980421C0F854
:1020D00088100498E021C0F8841001208DF81700C2
:1020E00060E0E1E7049800F0F7FB04F071F84DF6CA
:1020F0008361C4F21B31A0FB01014FF0FF3202EB00
:102100009141049A1268C2F8DC10049900900846C4
:10211000FEF7B2FE049800684FF48851405802223E
:1021200062F39440049A126850500498007D80072E
:1021300000280BD0FFE704980121C0F8881004980C
:10214000E022C0F884208DF817102BE00498006876
:1021500041F20811405847F6FE729043049A136802
:10216000526940EA42005850FFE70498FEF740FEEB
:102170000498FEF7F1FD0498016840688088C1F872
:1021800000030498016840680068C1F804030498DB
:102190000021C0F8881004981022C0F884208DF81F
:1021A0001710FFE79DF8170006B080BD0000000083
:1021B00080B592B01190002010900F900E900D906D
:1021C0000C901198006848F20001C4F202018842A4
:1021D00040F09D80FFE7FFE744F2D840C5F60200DB
:1021E000016841F400410160006800F400400B9078
:1021F0000B98FFE7FFE744F2D840C5F602000168FC
:1022000041F480310160006800F480300A900A983F
:10221000FFE7FFE744F2D840C5F60200016841F449
:1022200000310160006800F4003009900998FFE770
:10223000FFE744F2E040C5F60200016841F04001CA
:102240000160006800F0400008900898FFE7FFE791
:1022500044F2E040C5F60200016841F0040101606B
:10226000006800F0040007900798FFE7FFE744F2DA
:10227000E040C5F60200016841F00101016000681C
:1022800000F0010006900698FFE74FF4D0400C9054
:1022900002200D9000210E910F910B22109241F619
:1022A0000003C5F602030DF1300C059018460491A9
:1022B00061460392CDF808C000F01AFD32200C9060
:1022C00005980D9004990E910F91039A109240F683
:1022D0000000C5F60200029900F00AFD86200C906D
:1022E00005980D9004990E910F91039A1092002079
:1022F000C5F60200029900F0FBFC3D200190049914
:10230000049A01F099FB019801F07AFBFFE712B003
:1023100080BD00000000000081B0009001B0704757
:1023200080B58CB00A900991002006908DF80F00BE
:10233000099800280BD1FFE70A98D0F8881041F0DF
:102340000101C0F8881001208DF82F00C7E00A981D
:10235000D0F88400232804D0FFE701208DF82F0057
:10236000BDE00A98C06D08900A98089900EB8100BA
:10237000806C07900A98C06EC0F104000590FFE7DA
:102380000798C0680021C00F002802910ED1FFE716
:102390000698059900228842029207D2FFE79DF82D
:1023A0000F00B0FA80F040090290FFE70298C007E2
:1023B000002870D0FFE70798C0684000002809D5C2
:1023C000FFE7079840680A998867079800680A99A4
:1023D0004867FFE70798C0688000002805D4FFE73A
:1023E0000A98C06F00283FD0FFE70798C0688000B8
:1023F000002806D5FFE70A98002101660A98416681
:10240000FFE70A98406904900798C068C000002858
:1024100010D5FFE70798C0686FF3DF300A99496E5F
:10242000401A04900798C0680A99086701208DF83F
:102430000F00FFE70A9800F17C018030079A1269CB
:10244000BDF8103001900846019900F07DF90A9816
:10245000016E0131016604980A994A6E104448667B
:10246000079800210161FFE7FFE708980130089015
:102470000898042804D3FFE7089804380890FFE779
:10248000FFE70A98089900EB8100806C0790069896
:102490000130069074E706980A99CA6E1044C8661F
:1024A0000A98C06E002804D0FFE70A98FFF744F9A5
:1024B000FFE708980A99C8659DF80F0001280AD11E
:1024C000FFE70A98C06F099908600A980021C16760
:1024D0008DF82F1003E001208DF82F00FFE79DF805
:1024E0002F000CB080BD000080B588B0069005912B
:1024F0000492039306980068D0F80002C0070028F1
:1025000004D0FFE701208DF81F0043E00698006823
:10251000D0F800020190019820F07870059940EA07
:1025200041500190019820F4F810049940EA0140CC
:102530000190019840F00C000190019840F00100DA
:102540000190019806990968C1F8000200F068FF3F
:102550000290FFE706980068D0F80002C007002844
:102560000DD0FFE700F05CFF0299401AB0F57A7FCA
:1025700004D9FFE701208DF81F000BE0EAE7069879
:102580000068D0F8040280B20399086000208DF83A
:102590001F00FFE79DF81F0008B080BD000000008D
:1025A00080B586B005900598183004900498806A2C
:1025B00003900498C06A029001208DF80700FFE79D
:1025C000039800210028009107D0FFE79DF807003D
:1025D000002818BF01200090FFE70098C0070028DE
:1025E00047D0FFE701208DF80600039801380390DB
:1025F0000498029900EB81004069002809D1FFE7A7
:102600000298013000F00300029000208DF80600CF
:10261000FFE79DF8060000282AD0FFE70598C0686C
:10262000029901EB410100EBC100C068C00F002816
:1026300019D1FFE70498029900EB8100406900F08E
:10264000E3FA0498029900EB8100002141610298AD
:10265000013000F003000290039804998862029808
:102660000499C86203E000208DF80700FFE7FFE748
:10267000A6E7002006B080BD80B588B0039044F680
:102680008040C2F20040806802A900220192019BB2
:1026900016F0CEFD002833D1FFE7029881680231A1
:1026A0008160029801694069401A07910690069876
:1026B000012820DBFFE70698079901F01F01084475
:1026C000059007980490BFF34F8FFFE704984EF6EC
:1026D0005C71CEF2000108600498203004900598E7
:1026E0002038059005980028F0DCFFE7BFF34F8FF6
:1026F000BFF36F8FFFE7029880680399086003E0DB
:10270000039800210160FFE708B080BD00000000D1
:1027100080B582B0019044F68040C2F20040016969
:102720000091016941F0010101610098002808D180
:10273000FFE744F68040C2F2004000680BF050FC16
:10274000FFE702B080BD000088B09C46079006916C
:102750000592ADF8123007980390069802900598FC
:102760003E3800900098019001988168BDF81220D1
:102770001144C160BDF812000199486203980068D5
:10278000002804D1FFE701980399086004E001984C
:10279000029909684860FFE701980299086008B04B
:1027A000704700000000000080B584B002900191E5
:1027B0000198002804D1FFE701208DF80F0011E0F7
:1027C0000298D0F88400102808D1FFE702980199F8
:1027D000FEF74AFE00208DF80F0003E001208DF87F
:1027E0000F00FFE79DF80F0004B080BD000000005F
:1027F00080B584B0029001910198002804D1FFE7D0
:1028000001208DF80F0011E00298D0F88400102804
:1028100008D1FFE702980199FEF792FE00208DF89B
:102820000F0003E001208DF80F00FFE79DF80F0077
:1028300004B080BD0000000080B584B0029001911A
:102840000198002804D1FFE701208DF80F003FE038
:10285000019801784278837890F803C041EA4C01EE
:1028600090F804C041EA8C0190F808C041EACC011C
:1028700090F805C041EA0C1190F809C041F0200E13
:10288000BCF1000F08BF714690F807C041EA0C2167
:1028900090F806C041EA4C2141EA832141EAC27125
:1028A000C06840EA010000900298006880684FF616
:1028B0000001C7F6FF7100EA0100009940EA01003B
:1028C0000299096888604FF000008DF80F00FFE75B
:1028D0009DF80F0004B080BD80B584B003900398CC
:1028E0000068D0F800020190019820F47060019017
:1028F00003F06EFC0290029842F60051C0F23111D2
:1029000088420DD3FFE7029840F6BF61C0F216215E
:10291000884205D8FFE7019840F40070019042E03A
:10292000029840F6C061C0F2162188420DD3FFE73D
:10293000029848F2FF61C0F29331884205D8FFE760
:10294000019840F4407001902CE0029848F2007128
:10295000C0F29331884209D3FFE702984EF2FF019B
:10296000C0F2F551884201D8FFE71AE002984EF212
:102970000011C0F2F55188420DD3FFE702984DF2E5
:102980007F11C0F6F001884205D8FFE7019840F4B6
:102990008070019004E0019840F480600190FFE7AE
:1029A000FFE7FFE7FFE7019803990968C1F8000214
:1029B00004B080BD0000000080B584B00290029891
:1029C000D0F88400102860D1FFE702982321C0F8D6
:1029D000841002980122826502980068D0F80C27C2
:1029E0006023C0F602431A43C0F80C27029800681F
:1029F000D0F810274CF20003C0F620431A43C0F869
:102A0000102702980422C26602980191FEF794FEF4
:102A100002980068016841F00201016002980068B4
:102A2000016841F00101016002980068D0F8001DC2
:102A300041F00101C0F8001D0298006841F2041144
:102A4000425842F0010242500298006841F20811D7
:102A5000425842F001024250029800684FF48B51F4
:102A6000425842F4817242500298006841F2341197
:102A700042584DF2C1031A43425002980199C0F8DE
:102A8000841000208DF80F0003E001208DF80F0066
:102A9000FFE79DF80F0004B080BD000000000000BB
:102AA00082B000900098D0F88400232830D1FFE74E
:102AB00000982321C0F884100098006841F20411A6
:102AC000425822F0010242500098006841F2081179
:102AD000425822F00102425000980068016821F03B
:102AE0000101016000980068D0F8001D41F001016B
:102AF000C0F8001D00980068016821F00201016023
:102B000000981021C0F8841000208DF8070003E021
:102B100001208DF80700FFE79DF8070002B070471D
:102B200080B584B002900191019800280BD1FFE795
:102B30000298D0F8881041F00101C0F888100120F7
:102B40008DF80F003FE00298D0F88400232836D19A
:102B5000FFE70198406B0299C8630298019901222E
:102B6000FEF702FA00280BD0FFE70298D0F8881091
:102B700041F00201C0F8881001208DF80F0022E01A
:102B8000BFF34F8FFFE70298816A0131816202989B
:102B9000806A042805D3FFE70298816A04398162BC
:102BA000FFE7FFE702980168826A00EB8200806914
:102BB0004FF48952885000208DF80F0003E0012067
:102BC0008DF80F00FFE79DF80F0004B080BD0000F6
:102BD00080B582B0019044F68040C2F200400169A5
:102BE0000091016941F0040101610098002808D1B9
:102BF000FFE744F68040C2F2004000680BF0F0F9B5
:102C0000FFE702B080BD000080B582B0019001985E
:102C10000090009881680E3181600098416A0E39F9
:102C20004162684616F0A8FC02B080BD00000000BA
:102C300081B0009001B0704780B588B006900591D2
:102C40000492039306980068D0F80002C007002899
:102C500004D0FFE701208DF81F0045E006980068CA
:102C6000D0F800020190019820F07870059940EAB0
:102C700041500190019820F4F810049940EA014075
:102C800001900198012161F383000190019840F0C7
:102C900001000190BDF80C0048F20421C4F20201C9
:102CA0000860019848F20021C4F20201086000F0B7
:102CB000B7FB0290FFE706980068D0F80002C00753
:102CC00000280DD0FFE700F0ABFB0299401AB0F5E9
:102CD0007A7F04D9FFE701208DF81F0004E0EAE7BE
:102CE00000208DF81F00FFE79DF81F0008B080BD91
:102CF00080B590B00F900E9100200D908020C5F609
:102D000000000A900F980021C5F60201884250D0B9
:102D1000FFE70F9840F20041C5F60201884248D013
:102D2000FFE70F9840F60001C5F60201884240D047
:102D3000FFE70F9840F60041C5F60201884238D0FF
:102D4000FFE70F9841F20001C5F60201884230D03A
:102D5000FFE70F9841F20041C5F60201884228D0F2
:102D6000FFE70F9841F60001C5F60201884220D026
:102D7000FFE70F9841F60041C5F60201884218D0DE
:102D8000FFE70F9842F20001C5F60201884210D019
:102D9000FFE70F9842F20041C5F60201884208D0D1
:102DA000FFE70F9842F60001C5F60201884201D103
:102DB000FFE707E04EF24250C0F60100B3211AF0DF
:102DC00017FAFFE70E980088002806D0FFE70E9854
:102DD0004088002801D1FFE707E04EF24250C0F6DC
:102DE0000100B4211AF004FAFFE70E9840680028A9
:102DF0003DD0FFE70E984068012838D0FFE70E98D5
:102E00004068112833D0FFE70E98406802282ED082
:102E1000FFE70E984068122829D0FFE70E98406817
:102E2000B0F5881F23D0FFE70E984068B0F5041F67
:102E30001DD0FFE70E984068B0F5441F17D0FFE79C
:102E40000E984068B0F5901F11D0FFE70E984068CB
:102E5000B0F5081F0BD0FFE70E984068B0F5481F8B
:102E600005D0FFE70E984068032801D1FFE707E08F
:102E70004EF24250C0F60100B5211AF0B9F9FFE751
:102E8000FFE70E9800680D99C840002800F079828D
:102E9000FFE70E9800680D99012202FA01F108403F
:102EA0000C900C98002800F06882FFE70E984068AC
:102EB00000F00300012807D0FFE70E98406800F0FB
:102EC000030002284CD1FFE70E98C06800280FD0FD
:102ED000FFE70E98C06801280AD0FFE70E98C06887
:102EE000022805D0FFE70E98C068032801D1FFE74C
:102EF00007E04EF24250C0F60100C4211AF078F902
:102F0000FFE70F9880680B900D984000032101FAAD
:102F100000F00B9921EA00000B900E98C0680D9903
:102F2000490088400B9908430B900B980F998860D3
:102F30000F9840680B900D98012101FA00F00B9951
:102F400021EA00000B900E984068C0F300100D9924
:102F500088400B9908430B900B980F994860FFE746
:102F60000E98406800F00300032830D0FFE70E9869
:102F7000806800280AD0FFE70E988068012805D0F5
:102F8000FFE70E988068022801D1FFE707E04EF2C4
:102F90004250C0F60100D6211AF02AF9FFE70F9837
:102FA000C0680B900D984000032101FA00F00B99C6
:102FB00021EA00000B900E9880680D994900884026
:102FC0000B9908430B900B980F99C860FFE70E9878
:102FD000406800F00300022840F09580FFE70F985A
:102FE0000021C5F60201884250D0FFE70F9840F259
:102FF0000041C5F60201884248D0FFE70F9840F62D
:103000000001C5F60201884240D0FFE70F9840F664
:103010000041C5F60201884238D0FFE70F9841F21F
:103020000001C5F60201884230D0FFE70F9841F257
:103030000041C5F60201884228D0FFE70F9841F60B
:103040000001C5F60201884220D0FFE70F9841F643
:103050000041C5F60201884218D0FFE70F9842F2FE
:103060000001C5F60201884210D0FFE70F9842F236
:103070000041C5F60201884208D0FFE70F9842F6EA
:103080000001C5F60201884201D1FFE707E04EF2D8
:103090004250C0F60100E3211AF0AAF8FFE70E98AB
:1030A00000690F2801D8FFE707E04EF24250C0F652
:1030B0000100E4211AF09CF8FFE70F980D996FF0DA
:1030C000030202EA51010844006A0B900D9800F0D7
:1030D000070080000F2101FA00F00B9921EA00009F
:1030E0000B900E9800690D9901F007018900884046
:1030F0000B9908430B900B980F990D9B02EA530212
:1031000011440862FFE70F9800680B900D9840008B
:10311000032101FA00F00B9921EA00000B900E98B0
:10312000406800F003000D99490088400B9908435E
:103130000B900B980F9908600E98807980070028F3
:1031400000F01A81FFE7FFE744F2F440C5F6020001
:10315000016841F002010160006800F0020009907E
:103160000998FFE70D9820F0030040F20841C5F6EA
:10317000000140580B900D9800F0030080000F21D3
:1031800001FA00F00B9921EA00000B900F98002142
:10319000C5F60201884203D1FFE7002008907AE0DB
:1031A0000F9840F20041C5F60201884203D1FFE7C3
:1031B000012007906CE00F9840F60001C5F602016F
:1031C000884203D1FFE7022006905EE00F9840F6A8
:1031D0000041C5F60201884203D1FFE703200590B4
:1031E00050E00F9841F20001C5F60201884203D178
:1031F000FFE70420049042E00F9841F20041C5F639
:103200000201884203D1FFE70520039034E00F98C4
:1032100041F60001C5F60201884203D1FFE706200E
:10322000029026E00F9841F60041C5F6020188425F
:1032300003D1FFE70720019018E00F9842F2000148
:10324000C5F60201884203D1FFE7082000900AE09A
:103250000F9842F20041C5F602010A22884208BFD7
:1032600009220092FFE700980190FFE70198029081
:10327000FFE702980390FFE703980490FFE70498A4
:103280000590FFE705980690FFE706980790FFE78F
:1032900007980890FFE708980D9901F0030189004D
:1032A00088400B9908430B900B980D9921F003016E
:1032B00040F20842C5F6000288504FF0B040006866
:1032C0000B900C980B9921EA00000B900E988079D6
:1032D000C006002805D5FFE70C980B9908430B9012
:1032E000FFE70B984FF0B04108600420C5F60000DE
:1032F00000680B900C980B9921EA00000B900E9837
:1033000080798006002805D5FFE70C980B990843C3
:103310000B90FFE70B980421C5F6000108600A989E
:1033200040680B900C980B9921EA00000B900E98C6
:1033300080798007002805D5FFE70C980B99084392
:103340000B90FFE70B980A9948600A9800680B9069
:103350000C980B9921EA00000B900E988079C00719
:10336000002805D0FFE70C980B9908430B90FFE766
:103370000B980A990860FFE7FFE70D9801300D9060
:103380007FE510B080BD000080B582B013468C464A
:103390000190ADF802108DF80120BDF80200002860
:1033A00005D0FFE70020002801D1FFE708E04EF23A
:1033B0004250C0F601004FF4D57119F019FFFFE734
:1033C0009DF80100002805D0FFE79DF801000128C5
:1033D00001D1FFE708E04EF24250C0F6010040F292
:1033E000AB1119F005FFFFE79DF80100002805D09B
:1033F000FFE7BDF802000199886105E0BDF8020011
:10340000000401998861FFE702B080BD0000000060
:1034100041F20000C5F600400068000C7047000053
:103420004EF25C30C2F200400068704700000000BD
:1034300040F25010C2F2004000784EF25C31C2F20D
:1034400000410A6810440860704700000000000056
:1034500080B582B0032000F027FB02F00DFF44F29C
:103460001841C5F602010A68C2F303224EF2661340
:10347000C0F601039A5C02F01F02D0400090009851
:10348000096801F00F01595C01F01F01C84040F2CA
:10349000E001C2F200410860009840F2DC01C2F293
:1034A000004108600F2000F013F8002804D0FFE767
:1034B00001208DF8070005E000F08EFA00208DF85D
:1034C0000700FFE79DF8070002B080BD0000000084
:1034D00080B590B00E900E980F2810D8FFE70E9987
:1034E00019200022019000F0A7FA019800F088FA54
:1034F0000E9840F25411C2F20041086003E001202E
:103500008DF83F0046E0FFE744F2F040C5F60200C8
:10351000016841F001010160006800F001000290C3
:103520000298FFE706A803A902F00EFE02F090FE43
:103530004000059005984DF68361C4F21B31A0FB55
:1035400001014FF0FF3202EB9141049142F6A0419C
:10355000C2F200410022C4F201020A6040F2E732E6
:10356000CA60049A4A6000220A618A600090084694
:1035700003F08EFF002809D1FFE742F6A040C2F217
:10358000004004F0B9F88DF83F0003E001208DF809
:103590003F00FFE79DF83F0010B080BD0000000035
:1035A00080B582B001900198407800284BD0FFE7A9
:1035B00001984078012846D0FFE70198407802281A
:1035C00041D0FFE70198407803283CD0FFE70198FD
:1035D0004078042837D0FFE701984078052832D09A
:1035E000FFE70198407806282DD0FFE70198407842
:1035F000072828D0FFE701984078082823D0FFE764
:103600000198407809281ED0FFE7019840780A28E1
:1036100019D0FFE7019840780B2814D0FFE70198F4
:1036200040780C280FD0FFE7019840780D280AD089
:10363000FFE7019840780E2805D0FFE70198407811
:103640000F2801D1FFE708E04EF22140C0F601004B
:103650004FF4967119F0CCFDFFE70198007801282E
:1036600005D0FFE701980078002801D1FFE708E0C6
:103670004EF22140C0F6010040F22D1119F0B8FDC4
:10368000FFE7019840784EF69851CEF200010860AD
:1036900001980078002800F06481FFE70198007B22
:1036A000002805D0FFE70198007B012801D1FFE742
:1036B00008E04EF22140C0F6010040F2351119F049
:1036C00097FDFFE70198C07A002819D0FFE701981D
:1036D000C07A012814D0FFE70198C07A02280FD0E1
:1036E000FFE70198C07A03280AD0FFE70198C07A63
:1036F000052805D0FFE70198C07A062801D1FFE729
:1037000008E04EF22140C0F601004FF49B7119F021
:103710006FFDFFE70198807A00280AD0FFE7019843
:10372000807A012805D0FFE70198807A022801D12C
:10373000FFE708E04EF22140C0F6010040F23711E9
:1037400019F056FDFFE70198407B012805D0FFE7FF
:103750000198407B002801D1FFE708E04EF22140AC
:10376000C0F601004FF49C7119F042FDFFE701988B
:10377000807B012805D0FFE70198807B002801D1DC
:10378000FFE708E04EF22140C0F6010040F2391197
:1037900019F02EFDFFE70198C07B012805D0FFE757
:1037A0000198C07B002801D1FFE708E04EF22140DC
:1037B000C0F601004FF49D7119F01AFDFFE7019862
:1037C000407AFE2801DCFFE708E04EF22140C0F617
:1037D000010040F23B1119F00BFDFFE70198007A60
:1037E000042800F08980FFE70198007A052800F09E
:1037F0008380FFE70198007A06287DD0FFE70198D3
:10380000007A072878D0FFE70198007A082873D05B
:10381000FFE70198007A09286ED0FFE70198007A47
:103820000A2869D0FFE70198007A0B2864D0FFE7E7
:103830000198007A0C285FD0FFE70198007A0D28E4
:103840005AD0FFE70198007A0E2855D0FFE701987B
:10385000007A0F2850D0FFE70198007A10284BD04B
:10386000FFE70198007A112846D0FFE70198007A17
:10387000122841D0FFE70198007A13283CD0FFE7D7
:103880000198007A142837D0FFE70198007A1528AC
:1038900032D0FFE70198007A16282DD0FFE7019873
:1038A000007A172828D0FFE70198007A182823D03B
:1038B000FFE70198007A19281ED0FFE70198007AE7
:1038C0001A2819D0FFE70198007A1B2814D0FFE7C7
:1038D0000198007A1C280FD0FFE70198007A1D2874
:1038E0000AD0FFE70198007A1E2805D0FFE701986B
:1038F000007A1F2801D1FFE708E04EF22140C0F610
:1039000001004FF49E7119F073FCFFE701984068C5
:103910004EF69C51CEF2000108600198017B090728
:10392000C27A41EA02610278037A90F809C090F8FD
:103930000AE041EACE4190F80DE041EA8E4190F86C
:103940000EE041EA4E41C07B41EA004040EA0C20D3
:1039500040EA430010434EF6A051CEF20001086049
:103960000BE04EF69C50CEF20000002101604EF6B6
:10397000A050CEF200000160FFE702B080BD000061
:10398000BFF35F8F4EF62450CEF20000016821F4A1
:10399000803101604EF69450CEF2000000210160AB
:1039A000704700000000000081B00090009840F0D7
:1039B00001004EF69451CEF2000108604EF62450FC
:1039C000CEF20000016841F480310160BFF34F8FF7
:1039D000BFF36F8F01B0704781B0FFE744F2F4404E
:1039E000C5F60200016841F002010160006800F0C4
:1039F000020000900098FFE701B07047000000004F
:103A000080B582B00146ADF80600BDF90600002879
:103A100001D4FFE707E04EF22140C0F60100BD21CE
:103A200019F0E6FBFFE7BDF9060006F0DDFF02B086
:103A300080BD00000000000080B586B00346ADF8F0
:103A400016000491039203980F2801D8FFE707E0BE
:103A50004EF22140C0F60100A92119F0C9FBFFE791
:103A600004980F2801D8FFE707E04EF22140C0F686
:103A70000100AA2119F0BCFBFFE706F0D1FF02907C
:103A8000BDF916000299049A039B0190084611465D
:103A90001A4605F02DF9019900900846009906F0A4
:103AA000C7FF06B080BD000080B582B001900198CC
:103AB000072810D0FFE7019806280CD0FFE70198EF
:103AC000052808D0FFE70198042804D0FFE70198F3
:103AD000032801D1FFE707E04EF22140C0F60100C4
:103AE000912119F085FBFFE7019806F0C5FF02B0B0
:103AF00080BD00000000000080B584B002900298F4
:103B0000022804D0FFE70298012801D1FFE708E06E
:103B10004EF27B50C0F601004FF49F7119F068FB24
:103B2000FFE744F60C00C5F60200006800F0040050
:103B30000021B1EB900F13D1FFE744F60C00C5F65E
:103B40000200006800F007000299884204D0FFE7F5
:103B500001208DF80F002EE000208DF80F002AE0E4
:103B600044F60C00C5F60200016821F00701029A34
:103B700011430160FFF754FC0190FFE744F6040095
:103B8000C5F60200006800F400500021B1EB503F80
:103B90000DD1FFE7FFF744FC0199401AB0F57A7F99
:103BA00004D9FFE701208DF80F0004E0E6E70020CC
:103BB0008DF80F00FFE79DF80F0004B080BD0000F6
:103BC00080B502F005FB44F22041C5F60201096808
:103BD000C1F302114EF26612C0F60102515C01F00F
:103BE0001F01C84080BD000088B0079044F2284003
:103BF000C5F60200016801F0030106910068C0F3F8
:103C00000530059044F22C40C5F602000068C0F370
:103C100000100490049844F23C41C5F60201096882
:103C200089B2C908484300EE100AB8EE400A8DED8B
:103C3000020A0598002800F01D81FFE70698002879
:103C4000009009D0FFE7009801286AD0FFE70098AC
:103C5000022800F08A80ACE044F20040C5F6020081
:103C6000006800F020000021B1EB501F34D0FFE7C6
:103C700044F20040C5F602000068C0F3C10049F2FA
:103C80000001C0F2D03121FA00F003909DED030A4B
:103C9000B8EE400A9DED051AB8EE411A80EE010A11
:103CA00044F23840C5F6020000686FF35F2001EE71
:103CB000100AB8EE411A9DED022A9FED743A82EE89
:103CC000032A31EE021AB7EE002A31EE021A20EE74
:103CD000010A8DED010A23E09DED050AB8EE400AC8
:103CE0009FED6C1A81EE000A44F23840C5F60200DE
:103CF00000686FF35F2001EE100AB8EE411A9DEDE7
:103D0000022A9FED623A82EE032A31EE021AB7EEE2
:103D1000002A31EE021A20EE010A8DED010AFFE7BA
:103D20006BE09DED050AB8EE400A9FED591A81EE51
:103D3000000A44F23840C5F6020000686FF35F20C5
:103D400001EE100AB8EE411A9DED022A9FED4F3A9E
:103D500082EE032A31EE021AB7EE002A31EE021A81
:103D600020EE010A8DED010A47E09DED050AB8EE4F
:103D7000400A9FED451A81EE000A44F23840C5F62C
:103D8000020000686FF35F2001EE100AB8EE411ADE
:103D90009DED022A9FED3D3A82EE032A31EE021A92
:103DA000B7EE002A31EE021A20EE010A8DED010A6B
:103DB00023E09DED050AB8EE400A9FED351A81EE2D
:103DC000000A44F23840C5F6020000686FF35F2035
:103DD00001EE100AB8EE411A9DED022A9FED2B3A32
:103DE00082EE032A31EE021AB7EE002A31EE021AF1
:103DF00020EE010A8DED010AFFE79DED010A44F274
:103E00003840C5F60200016889B2490A01EE101A6D
:103E1000B8EE411AB7EE002A31EE021A80EE010A1E
:103E20000799BCEEC00A81ED000A9DED010A016808
:103E3000C1F3064101EE101AB8EE411A31EE021A32
:103E400080EE010A0799BCEEC00A81ED010A9DEDE2
:103E5000010A0068C0F3066001EE100AB8EE411ACC
:103E600031EE021A80EE010A0798BCEEC00A80ED1E
:103E7000020A07E00798002101600798416007984F
:103E80008160FFE708B0704720BCBE4B00000046D1
:103E90000024744A0024744C88B0079044F22840EF
:103EA000C5F60200016801F0030106910068C0F345
:103EB0000550059044F22C40C5F602000068C0F39E
:103EC00000200490049844F24441C5F602010968B8
:103ED00089B2C908484300EE100AB8EE400A8DEDD9
:103EE000020A0598002800F01D81FFE706980028C7
:103EF000009009D0FFE7009801286AD0FFE70098FA
:103F0000022800F08A80ACE044F20040C5F60200CE
:103F1000006800F020000021B1EB501F34D0FFE713
:103F200044F20040C5F602000068C0F3C10049F247
:103F30000001C0F2D03121FA00F003909DED030A98
:103F4000B8EE400A9DED051AB8EE411A80EE010A5E
:103F500044F24040C5F6020000686FF35F2001EEB6
:103F6000100AB8EE411A9DED022A9FED743A82EED6
:103F7000032A31EE021AB7EE002A31EE021A20EEC1
:103F8000010A8DED010A23E09DED050AB8EE400A15
:103F90009FED6C1A81EE000A44F24040C5F6020023
:103FA00000686FF35F2001EE100AB8EE411A9DED34
:103FB000022A9FED623A82EE032A31EE021AB7EE30
:103FC000002A31EE021A20EE010A8DED010AFFE708
:103FD0006BE09DED050AB8EE400A9FED591A81EE9F
:103FE000000A44F24040C5F6020000686FF35F200B
:103FF00001EE100AB8EE411A9DED022A9FED4F3AEC
:1040000082EE032A31EE021AB7EE002A31EE021ACE
:1040100020EE010A8DED010A47E09DED050AB8EE9C
:10402000400A9FED451A81EE000A44F24040C5F671
:10403000020000686FF35F2001EE100AB8EE411A2B
:104040009DED022A9FED3D3A82EE032A31EE021ADF
:10405000B7EE002A31EE021A20EE010A8DED010AB8
:1040600023E09DED050AB8EE400A9FED351A81EE7A
:10407000000A44F24040C5F6020000686FF35F207A
:1040800001EE100AB8EE411A9DED022A9FED2B3A7F
:1040900082EE032A31EE021AB7EE002A31EE021A3E
:1040A00020EE010A8DED010AFFE79DED010A44F2C1
:1040B0004040C5F60200016889B2490A01EE101AB3
:1040C000B8EE411AB7EE002A31EE021A80EE010A6C
:1040D0000799BCEEC00A81ED000A9DED010A016856
:1040E000C1F3064101EE101AB8EE411A31EE021A80
:1040F00080EE010A0799BCEEC00A81ED010A9DED30
:10410000010A0068C0F3066001EE100AB8EE411A19
:1041100031EE021A80EE010A0798BCEEC00A80ED6B
:10412000020A07E00798002101600798416007989C
:104130008160FFE708B0704720BCBE4B000000461E
:104140000024744A0024744C80B59AB01890002062
:104150008DF857008DF856001898C0780007002891
:104160004AD5FFE71898406E002814900FD0FFE75B
:104170001498B0F5801F13D0FFE71498B0F5001F16
:1041800016D0FFE71498B0F5401F19D019E044F29B
:104190002C40C5F60200016841F40031016014E0D2
:1041A00018980430022104F0DBFD8DF857000CE074
:1041B00018982430022104F05FFF8DF8570004E0C6
:1041C00003E001208DF85700FFE79DF85700002815
:1041D0000CD1FFE744F25040C5F60200016821F41B
:1041E0004011189A526E1143016004E09DF8570087
:1041F0008DF85600FFE7FFE718984078C0070028C1
:1042000041D0FFE71898406D0428139020D81399E7
:10421000DFE801F0030C141C1D0044F22C40C5F62D
:104220000200016841F40031016015E01898043083
:10423000002104F095FD8DF857000DE0189824300A
:10424000002104F019FF8DF8570005E004E003E0B9
:1042500001208DF85700FFE79DF8570000280CD18A
:10426000FFE744F25040C5F60200016821F0070163
:10427000189A526D1143016004E09DF857008DF8C3
:104280005600FFE7FFE718984078800700284DD5D3
:10429000FFE71898806D0028129011D0FFE7129860
:1042A000402816D0FFE7129880281AD0FFE712980E
:1042B000C0281ED0FFE71298B0F5807F1AD01AE010
:1042C00044F22C40C5F60200016841F4003101605F
:1042D00015E018980430002104F042FD8DF85700D5
:1042E0000DE018982430002104F0C6FE8DF8570028
:1042F00005E004E003E001208DF85700FFE79DF89A
:10430000570000280CD1FFE744F25040C5F60200E8
:10431000016821F4E071189A926D1143016004E084
:104320009DF857008DF85600FFE7FFE71898407892
:104330004007002852D5FFE71898D0F8A4000028BD
:10434000119014D0FFE71198B0F5001F18D0FFE7C7
:104350001198B0F5800F1BD0FFE71198B0F5C00F92
:104360001ED0FFE71198B0F5000F1AD01AE044F202
:104370002C40C5F60200016841F40031016015E0EF
:1043800018980430002104F0EBFC8DF857000DE084
:1043900018982430002104F06FFE8DF8570005E0D6
:1043A00004E003E001208DF85700FFE79DF8570077
:1043B00000280DD1FFE744F25840C5F6020001681D
:1043C00021F46001189AD2F8A4201143016004E09E
:1043D0009DF857008DF85600FFE7FFE718984078E2
:1043E0000007002852D5FFE71898D0F8A800002849
:1043F000109014D0FFE71098B0F1807F18D0FFE73D
:104400001098B0F1007F1BD0FFE71098B0F1407F0B
:104410001ED0FFE71098B0F1806F1AD01AE044F276
:104420002C40C5F60200016841F40031016015E03E
:1044300018980430002104F093FC8DF857000DE02B
:1044400018982430002104F017FE8DF8570005E07D
:1044500004E003E001208DF85700FFE79DF85700C6
:1044600000280DD1FFE744F25840C5F6020001686C
:1044700021F0E061189AD2F8A8201143016004E00D
:104480009DF857008DF85600FFE7FFE71898C078B1
:104490008007002840D5FFE71898806C00280F900F
:1044A0001ED0FFE70F98102808D0FFE70F982028AC
:1044B0000DD0FFE70F98302811D012E044F22C40C5
:1044C000C5F60200016841F4003101600DE0189862
:1044D0000430022104F044FC8DF8570005E004E0AC
:1044E00003E001208DF85700FFE79DF857000028F2
:1044F0000CD1FFE744F24C40C5F60200016821F000
:104500003001189A926C1143016004E09DF8570045
:104510008DF85600FFE7FFE718984078C00600289E
:1045200050D5FFE71898C06D00280E9014D0FFE713
:104530000E98B0F5805F18D0FFE70E98B0F5005FD9
:104540001BD0FFE70E98B0F5405F1ED0FFE70E9836
:10455000B0F5804F1AD01AE044F22C40C5F60200A4
:10456000016841F40031016015E018980430002121
:1045700004F0F6FB8DF857000DE018982430002168
:1045800004F07AFD8DF8570005E004E003E0012017
:104590008DF85700FFE79DF8570000280CD1FFE782
:1045A00044F25040C5F60200016821F4E041189A37
:1045B000D26D1143016004E09DF857008DF856005C
:1045C000FFE7FFE718984078800600284ED5FFE700
:1045D0001898006E00280D9019D0FFE70D98B0F5DF
:1045E000803F15D0FFE70D98B0F5003F18D0FFE7EA
:1045F0000D98B0F5403F1BD0FFE70D98B0F5802F28
:1046000017D0FFE70D98B0F5A02F13D013E016E0F8
:1046100018980430012104F0A3FB8DF857000EE038
:1046200018982430012104F027FD8DF8570006E08A
:1046300005E004E003E001208DF85700FFE79DF856
:10464000570000280CD1FFE744F25040C5F60200A5
:10465000016821F4E021189A126E1143016004E010
:104660009DF857008DF85600FFE7FFE7189840784F
:104670004006002850D5FFE71898D0F8AC00002875
:104680000C9019D0FFE70C98B0F1805F15D0FFE7D0
:104690000C98B0F1005F18D0FFE70C98B0F1405FC4
:1046A0001BD0FFE70C98B0F1804F17D0FFE70C98B4
:1046B000B0F1A04F13D013E016E018980430012198
:1046C00004F04EFB8DF857000EE0189824300121BD
:1046D00004F0D2FC8DF8570006E005E004E003E0AA
:1046E00001208DF85700FFE79DF8570000280DD1F5
:1046F000FFE744F25840C5F60200016821F0E041AE
:10470000189AD2F8AC201143016004E09DF85700DC
:104710008DF85600FFE7FFE718984078000600285C
:104720003DD5FFE71898C06E00280B901BD0FFE71F
:104730000B98B0F1805F05D0FFE70B98B0F1005FF8
:1047400009D011E044F22C40C5F60200016841F4A2
:10475000003101600CE018980430012104F000FBE6
:104760008DF8570004E003E001208DF85700FFE7C3
:104770009DF8570000280CD1FFE744F25040C5F6E1
:104780000200016821F04051189AD26E1143016075
:1047900004E09DF857008DF85600FFE7FFE71898F2
:1047A000C078C007002838D0FFE71898406C03286D
:1047B0000A9017D80A99DFE801F014020B1344F2AB
:1047C0002C40C5F60200016841F4003101600DE0A3
:1047D00018980430022104F0C3FA8DF8570005E060
:1047E00004E003E001208DF85700FFE79DF8570033
:1047F00000280CD1FFE744F24C40C5F602000168E6
:1048000021F00301189A526C1143016004E09DF8F5
:1048100057008DF85600FFE7FFE7189880784006AC
:10482000002840F14483FFE71898D0F8B000B0F5B5
:10483000807F00F07C82FFE71898D0F8B000B0F5D8
:10484000007F00F07482FFE71898D0F8B000B0F550
:104850000C5F00F06C82FFE71898D0F8B000B0F55C
:104860004C5F00F06482FFE71898D0F8B000B0F514
:10487000864F00F05C82FFE71898D0F8B000B0F5E2
:10488000A64F00F05482FFE71898D0F8B000B0F5BA
:10489000C64F00F04C82FFE71898D0F8B000B0F592
:1048A000E64F00F04482FFE71898D0F8B000B0F56A
:1048B000034F00F03C82FFE71898D0F8B000B0F545
:1048C000134F00F03482FFE71898D0F8B000B0F52D
:1048D000234F00F02C82FFE71898D0F8B000B0F515
:1048E000334F00F02482FFE71898D0F8B000B0F5FD
:1048F000434F00F01C82FFE71898D0F8B000B0F5E5
:10490000534F00F01482FFE71898D0F8B000B0F5CC
:10491000634F00F00C82FFE71898D0F8B000B0F5B4
:10492000734F00F00482FFE71898D0F8B00040F20F
:104930000031C0F20101884200F0F981FFE71898C8
:10494000D0F8B00041F20031C0F20101884200F01D
:10495000EE81FFE71898D0F8B00042F20031C0F2C3
:104960000101884200F0E381FFE71898D0F8B00019
:1049700043F20031C0F20101884200F0D881FFE724
:104980001898D0F8B00044F20031C0F2010188421A
:1049900000F0CD81FFE71898D0F8B00045F2003163
:1049A000C0F20101884200F0C281FFE71898D0F8F8
:1049B000B00046F20031C0F20101884200F0B78138
:1049C000FFE71898D0F8B00047F20031C0F20101BB
:1049D000884200F0AC81FFE71898D0F8B00048F2A8
:1049E0000031C0F20101884200F0A181FFE7189870
:1049F000D0F8B00049F20031C0F20101884200F065
:104A00009681FFE71898D0F8B0004AF20031C0F262
:104A10000101884200F08B81FFE71898D0F8B000C0
:104A20004BF20031C0F20101884200F08081FFE7C3
:104A30001898D0F8B0004CF20031C0F20101884261
:104A400000F07581FFE71898D0F8B0004DF2003102
:104A5000C0F20101884200F06A81FFE71898D0F89F
:104A6000B0004EF20031C0F20101884200F05F81D7
:104A7000FFE71898D0F8B0004FF20031C0F2010102
:104A8000884200F05481FFE71898D0F8B00040F257
:104A90000031C0F20201884200F04981FFE7189816
:104AA000D0F8B00041F20031C0F20201884200F0BB
:104AB0003E81FFE71898D0F8B00042F20031C0F212
:104AC0000201884200F03381FFE71898D0F8B00067
:104AD00043F20031C0F20201884200F02881FFE772
:104AE0001898D0F8B00044F20031C0F202018842B8
:104AF00000F01D81FFE71898D0F8B00045F20031B2
:104B0000C0F20201884200F01281FFE71898D0F845
:104B1000B00046F20031C0F20201884200F0078185
:104B2000FFE71898D0F8B00047F20031C0F2020158
:104B3000884200F0FC80FFE71898D0F8B00048F2F7
:104B40000031C0F20201884200F0F180FFE71898BE
:104B5000D0F8B00049F20031C0F20201884200F002
:104B6000E680FFE71898D0F8B0004AF20031C0F2B2
:104B70000201884200F0DB80FFE71898D0F8B0000F
:104B80004BF20031C0F20201884200F0D080FFE712
:104B90001898D0F8B0004CF20031C0F202018842FF
:104BA00000F0C580FFE71898D0F8B0004DF2003152
:104BB000C0F20201884200F0BA80FFE71898D0F8EE
:104BC000B0004EF20031C0F20201884200F0AF8026
:104BD000FFE71898D0F8B0004FF20031C0F20201A0
:104BE000884200F0A480FFE71898D0F8B00040F2A7
:104BF0000031C0F20301884200F09980FFE7189865
:104C0000D0F8B00041F20031C0F20301884200F058
:104C10008E80FFE71898D0F8B00042F20031C0F261
:104C20000301884200F08380FFE71898D0F8B000B5
:104C300043F20031C0F20301884278D0FFE71898B0
:104C4000D0F8B00044F20031C0F2030188426ED0C7
:104C5000FFE71898D0F8B00045F20031C0F2030128
:104C6000884264D0FFE71898D0F8B00046F20031CF
:104C7000C0F2030188425AD0FFE71898D0F8B0007C
:104C800047F20031C0F20301884250D0FFE7189884
:104C9000D0F8B00048F20031C0F20301884246D09B
:104CA000FFE71898D0F8B00049F20031C0F20301D4
:104CB00088423CD0FFE71898D0F8B0004AF20031A3
:104CC000C0F20301884232D0FFE71898D0F8B00054
:104CD0004BF20031C0F20301884228D0FFE7189858
:104CE000D0F8B0004CF20031C0F2030188421ED06F
:104CF000FFE71898D0F8B0004DF20031C0F2030180
:104D0000884214D0FFE71898D0F8B0004EF2003176
:104D1000C0F2030188420AD0FFE71898D0F8B0002B
:104D20004FF20031C0F20301884201D1FFE708E0F1
:104D30004EF20750C0F6010040F27D3118F058FAEB
:104D4000FFE744F60000C5F60200016841F48071F7
:104D50000160FEF765FB1690FFE744F60000C5F61C
:104D600002000068C00500280CD4FFE7FEF758FBDE
:104D70001699401A652804D3FFE703208DF85700E1
:104D800000E0EAE79DF85700002840F08A80FFE73E
:104D900044F27040C5F60200006800F440701899B3
:104DA000D1F8B01001F44071884213D0FFE744F20B
:104DB0007040C5F60200016821F440711791016846
:104DC00041F480310160016821F48031016017995C
:104DD0000160FFE71898D0F8B000B0F5807F1FD1D0
:104DE000FFE7FEF71DFB1690FFE744F27040C5F6A3
:104DF0000200006800F002000021B1EB500F0ED15C
:104E0000FFE7FEF70DFB1699401A41F289318842FF
:104E100004D3FFE703208DF8570000E0E5E7FFE744
:104E20009DF85700002836D1FFE7FFE71898D0F823
:104E3000B00000F44070B0F5407F14D1FFE744F2B9
:104E40001040C5F60200016821F47C51189AD2F88E
:104E5000B0204FF6F043C0F6FF731A4041EA12113A
:104E60000A46016009E044F21040C5F602000168FC
:104E700021F47C510A460160FFE71898D0F8B00091
:104E80006FF31F3044F27041C5F602010A68104307
:104E90000860FFE704E09DF857008DF85600FFE733
:104EA00004E09DF857008DF85600FFE7FFE71898DB
:104EB0000078C007002800F04D80FFE71898806F49
:104EC000282809902BD80999DFE801F0152929290C
:104ED0002929292916292929292929291E29292960
:104EE0002929292926292929292929292729292937
:104EF00029292929280016E018980430012103F0F7
:104F00002FFF8DF857000EE018982430012104F08F
:104F1000B3F88DF8570006E005E004E003E0012057
:104F20008DF85700FFE79DF8570000280CD1FFE7E8
:104F300044F25440C5F60200016821F03801189A85
:104F4000926F1143016004E09DF857008DF8560000
:104F5000FFE7FFE718980078800700283AD5FFE7B9
:104F60001898406F0528089019D80899DFE801F0D3
:104F700003040C14151616E018980430012103F0F0
:104F8000EFFE8DF857000EE018982430012104F050
:104F900073F88DF8570006E005E004E003E0012017
:104FA0008DF85700FFE79DF8570000280CD1FFE768
:104FB00044F25440C5F60200016821F00701189A36
:104FC000526F1143016004E09DF857008DF85600C0
:104FD000FFE7FFE718980078400700283CD5FFE777
:104FE0001898D0F890000528079019D80799DFE89D
:104FF00001F003040C14151616E018980430012172
:1050000003F0AEFE8DF857000EE018982430012111
:1050100004F032F88DF8570006E005E004E003E004
:1050200001208DF85700FFE79DF8570000280DD1AB
:10503000FFE744F25840C5F60200016821F007017D
:10504000189AD2F890201143016004E09DF85700AF
:105050008DF85600FFE7FFE71898007880060028D3
:1050600050D5FFE71898D0F88C000028069019D08A
:10507000FFE70698B0F1805F15D0FFE70698B0F122
:10508000005F18D0FFE70698B0F1405F1BD0FFE744
:105090000698B0F1804F17D0FFE70698B0F1A04F07
:1050A00013D013E016E018980430002103F058FEE6
:1050B0008DF857000EE018982430022103F0DCFF31
:1050C0008DF8570006E005E004E003E001208DF8CC
:1050D0005700FFE79DF8570000280DD1FFE744F285
:1050E0005440C5F60200016821F0E041189AD2F858
:1050F0008C201143016004E09DF857008DF85600A4
:10510000FFE7FFE7189800784006002850D5FFE732
:105110001898D0F898000028059019D0FFE7059856
:10512000B0F5806F15D0FFE70598B0F5006F18D087
:10513000FFE70598B0F5406F1BD0FFE70598B0F585
:10514000805F17D0FFE70598B0F5A05F13D013E09C
:1051500016E018980430002103F002FE8DF8570085
:105160000EE018982430022103F086FF8DF85700D6
:1051700006E005E004E003E001208DF85700FFE7BA
:105180009DF8570000280DD1FFE744F25840C5F6BE
:105190000200016821F4E051189AD2F898201143D6
:1051A000016004E09DF857008DF85600FFE7FFE727
:1051B000189800780006002850D5FFE71898D0F816
:1051C0009C000028049019D0FFE70498B0F5005F18
:1051D00015D0FFE70498B0F5804F18D0FFE704988A
:1051E000B0F5C04F1BD0FFE70498B0F5004F17D0C3
:1051F000FFE70498B0F5204F13D013E016E018989D
:105200000430002103F0ACFD8DF857000EE0189833
:105210002430022103F030FF8DF8570006E005E04E
:1052200004E003E001208DF85700FFE79DF85700E8
:1052300000280DD1FFE744F25840C5F6020001688E
:1052400021F46041189AD2F89C201143016004E0D7
:105250009DF857008DF85600FFE7FFE71898007893
:105260000007002846D5FFE71898D0F88000B0F571
:10527000805F14D0FFE71898D0F88000B0F5005F89
:105280000DD0FFE71898D0F88000002807D0FFE77E
:105290001898D0F88000B0F5405F01D1FFE708E032
:1052A0004EF20750C0F6010040F20D5117F0A0FF7A
:1052B000FFE71898D0F88000B0F5805F0DD1FFE7C8
:1052C00018982430022103F0D7FE002804D0FFE70D
:1052D00001208DF85600FFE7FFE744F25440C5F681
:1052E0000200016821F44051189AD2F8802011433D
:1052F0000160FFE718980078C006002846D5FFE750
:105300001898D0F89400B0F5807F14D0FFE7189873
:10531000D0F89400B0F5007F0DD0FFE71898D0F8D2
:105320009400002807D0FFE71898D0F89400B0F553
:10533000405F01D1FFE708E04EF20750C0F60100E0
:105340004FF4A46117F054FFFFE71898D0F89400C9
:10535000B0F5807F0DD1FFE718982430022103F0CB
:105360008BFE002804D0FFE701208DF85600FFE7F0
:10537000FFE744F25840C5F60200016821F440718D
:10538000189AD2F8942011430160FFE718988078AA
:10539000000700283ED5FFE71898D0F8A0000028A5
:1053A00003900AD0FFE70398B0F5803F0DD0FFE7E8
:1053B0000398B0F5003F10D010E018980430002199
:1053C00003F0CEFC8DF857000CE018982430022131
:1053D00003F052FE8DF8570004E003E001208DF841
:1053E0005700FFE79DF8570000280DD1FFE744F272
:1053F0005840C5F60200016821F44031189AD2F8ED
:10540000A0201143016004E09DF857008DF856007C
:10541000FFE7FFE7189880784007002840D5FFE7AE
:105420001898D0F88400B0F5801F02900AD0FFE7EA
:105430000298B0F5001F0ED0FFE70298B0F5401FAC
:1054400011D011E044F22C40C5F60200016841F48D
:10545000003101600CE018982430012103F00CFEAB
:105460008DF8570004E003E001208DF85700FFE7B6
:105470009DF8570000280DD1FFE744F25440C5F6CF
:105480000200016821F44011189AD2F884201143D7
:10549000016004E09DF857008DF85600FFE7FFE734
:1054A00018988078C00700284CD0FFE71898C06C87
:1054B000002806D0FFE71898C06CB0F5803F01D1F6
:1054C000FFE708E04EF20750C0F6010040F28651B7
:1054D00017F08EFEFFE71898C06C0028019005D0E9
:1054E000FFE70198B0F5803F09D010E044F22C406E
:1054F000C5F60200016841F4003101600BE0189824
:105500000430022103F02CFC8DF8570003E0012049
:105510008DF85700FFE79DF8570000280CD1FFE7F2
:1055200044F24C40C5F60200016821F48031189A1B
:10553000D26C1143016004E09DF857008DF85600CD
:10554000FFE7FFE71898C078800600280DD5FFE731
:1055500018982430022103F08FFD002804D0FFE7C3
:1055600001208DF85600FFE7FFE718988078800744
:1055700000283CD5FFE71898C06F002800901AD08B
:10558000FFE70098B0F5807F0AD0FFE70098B0F5FC
:10559000007F0ED0FFE70098B0F5407F0AD00BE007
:1055A00044F22C40C5F60200016841F4003101606C
:1055B00006E005E004E003E001208DF85700FFE776
:1055C0009DF8570000280CD1FFE744F25440C5F67F
:1055D0000200016821F44071189AD26F11430160F2
:1055E00004E09DF857008DF85600FFE7FFE7189894
:1055F0008078C006002821D5FFE71898006F0028A2
:1056000006D0FFE71898006FB0F1004F01D1FFE717
:1056100008E04EF20750C0F6010040F2E55117F0E5
:10562000E7FDFFE744F25040C5F60200016821F0B3
:105630000041189A126F11430160FFE71898C07873
:10564000C006002824D5FFE71898D0F8B400002839
:1056500007D0FFE71898D0F8B400B0F5804F01D11B
:10566000FFE708E04EF20750C0F6010040F2EF51AC
:1056700017F0BEFDFFE744F21040C5F602000168D6
:1056800021F48041189AD2F8B42011430160FFE759
:10569000189880788006002821D5FFE71898806E3A
:1056A000002806D0FFE71898806EB0F1807F01D106
:1056B000FFE708E04EF20750C0F6010040F2F95152
:1056C00017F096FDFFE744F25040C5F6020001686E
:1056D00021F08071189A926E11430160FFE71898CB
:1056E000C0784006002828D5FFE71898D0F8B80001
:1056F000002807D0FFE71898D0F8B800B0F5004FA1
:1057000001D1FFE708E04EF20750C0F6010040F279
:105710000F6117F06DFDFFE7FFE744F21040C5F69B
:105720000200016821F4004101601899D1F8B81015
:10573000026811430160FFE7FFE71898C078000690
:10574000002827D5FFE71898006D00280CD0FFE748
:105750001898006DB0F1805F06D0FFE71898006DD3
:10576000B0F1005F01D1FFE708E04EF20750C0F64C
:10577000010040F2196117F03BFDFFE744F24C4095
:10578000C5F60200016821F04051189A126D1143CC
:105790000160FFE718988078000600282BD5FFE706
:1057A0001898D0F8880000280ED0FFE71898D0F895
:1057B0008800B0F5800F07D0FFE71898D0F8880070
:1057C000B0F5000F01D1FFE708E04EF20750C0F638
:1057D000010040F2236117F00BFDFFE744F2544053
:1057E000C5F60200016821F44001189AD2F8882019
:1057F00011430160FFE79DF85600002804D1FFE740
:1058000000208DF8670003E001208DF86700FFE7B6
:105810009DF867001AB080BD80B586B004900391F2
:105820000498002805D1FFE701208DF8170000F04B
:1058300087BC04980068002806D0FFE70498006839
:105840003F2801D8FFE708E04EF2CF40C0F6010044
:1058500040F2923117F0CCFCFFE7039800283CD0CF
:10586000FFE70398012838D0FFE70398022834D0D7
:10587000FFE70398032830D0FFE7039804282CD0D3
:10588000FFE70398052828D0FFE70398062824D0CF
:10589000FFE70398072820D0FFE7039808281CD0CB
:1058A000FFE70398092818D0FFE703980A2814D0C7
:1058B000FFE703980B2810D0FFE703980C280CD0C3
:1058C000FFE703980D2808D0FFE703980E2804D0BF
:1058D000FFE703980F2801D1FFE708E04EF2CF4021
:1058E000C0F6010040F2933117F082FCFFE7039805
:1058F00042F20001C5F20021096801F00F0188425F
:1059000017D9FFE742F20000C5F20020016821F03C
:105910000F01039A11430160006800F00F00039922
:10592000884205D0FFE701208DF8170000F008BC81
:10593000FFE704980078400700283CD5FFE704986B
:10594000006944F21841C5F60201096801F07001CE
:1059500088422FD9FFE704980069002814D0FFE798
:105960000498006940280FD0FFE704980069502888
:105970000AD0FFE704980069602805D0FFE7049883
:105980000069702801D1FFE708E04EF2CF40C0F671
:10599000010040F2AF3117F02BFCFFE744F2184052
:1059A000C5F60200016821F07001049A12691143E2
:1059B0000160FFE7FFE704980078000700283CD566
:1059C000FFE70498406944F21C41C5F602010968EA
:1059D00001F0700188422FD9FFE704984069002840
:1059E00014D0FFE70498406940280FD0FFE70498DF
:1059F000406950280AD0FFE704984069602805D024
:105A0000FFE704984069702801D1FFE708E04EF2F3
:105A1000CF40C0F6010040F2C13117F0E9FBFFE7CB
:105A200044F21C40C5F60200016821F07001049A9E
:105A3000526911430160FFE7FFE704980078C00650
:105A4000002840D5FFE70498806944F21C41C5F660
:105A50000201096801F4E061884233D9FFE7049844
:105A60008069002818D0FFE704988069B0F5806F3E
:105A700012D0FFE704988069B0F5A06F0CD0FFE763
:105A800004988069B0F5C06F06D0FFE7049880697C
:105A9000B0F5E06F01D1FFE708E04EF2CF40C0F66D
:105AA000010040F2D23117F0A3FBFFE744F21C40A3
:105AB000C5F60200016821F4E061049A926911437D
:105AC0000160FFE7FFE704980078800600283CD5D6
:105AD000FFE70498C06944F22041C5F60201096855
